:1000000072C000009EC000009CC000009AC00000AA
:1000100098C0000096C0000094C0000092C000008C
:1000200090C000008EC000008CC000008AC000009C
:1000300088C0000086C0000084C0000082C00000AC
:1000400080C000007EC000007CC000007AC00000BC
:1000500078C0000076C0000074C0000057C20000E5
:1000600070C000001DC20000F2C100006AC00000A4
:1000700068C0000066C0000064C0000062C00000EC
:1000800060C000005EC000005CC000005AC00000FC
:1000900058C0000056C0000054C0000052C000000C
:1000A00050C000004EC000004CC000004AC000001C
:1000B00048C0000046C0000044C0000042C000002C
:1000C00040C000003EC000003CC000003AC000003C
:1000D00038C0000036C0000034C0000032C000004C
:1000E00030C00000FA0311241FBECFEFD1E2DEBF03
:1000F000CDBF00E00CBF12E0A0E0B2E0E2E6F8E025
:1001000000E00BBF02C007900D92A431B107D9F7F0
:1001100022E0A4E1B2E001C01D92AC3BB207E1F7DE
:1001200010E0C3E7D0E000E005C021970109802F6F
:10013000FE018DD3C237D10780E00807B1F73BD26B
:100140008EC35ECFAF92BF92CF92DF92EF92FF92BB
:100150000F931F93CF93DF936C017B018B01040FEF
:10016000151FEB015E01AE18BF08C017D10759F08B
:100170006991D601ED91FC910190F081E02DC601CD
:100180001995892B79F7C501DF91CF911F910F91B7
:10019000FF90EF90DF90CF90BF90AF900895FC015B
:1001A000538D448D252F30E0842F90E0821B930BDC
:1001B000541710F0CF96089501970895FC01918D82
:1001C000828D981761F0A28DAE0FBF2FB11D5D9685
:1001D0008C91928D9F5F9F73928F90E008958FEF27
:1001E0009FEF0895FC01918D828D981731F0828DDB
:1001F000E80FF11D858D90E008958FEF9FEF089532
:10020000FC01918D228D892F90E0805C9F4F821B95
:1002100091098F73992708958FE192E0F1DF21E032
:10022000892B09F420E0822F0895FC01A48DA80FEA
:10023000B92FB11DA35ABF4F2C91848D90E0019628
:100240008F739927848FA689B7892C93A089B18948
:100250008C91837080648C93938D848D981306C0E9
:100260000288F389E02D80818F7D80830895EF924D
:10027000FF920F931F93CF93DF93EC0181E0888F60
:100280009B8D8C8D98131AC0E889F989808185FF30
:1002900015C09FB7F894EE89FF896083E889F989D2
:1002A00080818370806480839FBF81E090E0DF91D4
:1002B000CF911F910F91FF90EF900895F62E0B8D27
:1002C00010E00F5F1F4F0F731127E02E8C8D8E11E2
:1002D0000BC00FB607FCFACFE889F989808185FF4A
:1002E000F5CFCE01A2DFF2CFEB8DEC0FFD2FF11D8C
:1002F000E35AFF4FF0829FB7F8940B8FEA89FB898E
:1003000080818062D0CFCF93DF93EC01888D8823EA
:10031000B1F0AA89BB89E889F9898C9185FD03C070
:10032000808186FD0CC00FB607FCF7CF8C9185FF4E
:10033000F2CF808185FFEDCFCE0177DFEACFDF916D
:10034000CF91089580E090E0892B21F065DF811145
:100350000E94000080E090E0892B49F080E090E06E
:10036000892B29F00E94000081110E94000080E08A
:1003700090E0892B49F080E090E0892B29F00E94E1
:10038000000081110E94000080E090E0892B49F07C
:1003900080E090E0892B29F00E94000081110C94EC
:1003A000000008953FB7F8948091190290911A02C5
:1003B000A0911B02B0911C0226B5A89B05C02F3F3F
:1003C00019F00196A11DB11D3FBFBA2FA92F982F7B
:1003D0008827BC01CD01620F711D811D911D42E076
:1003E000660F771F881F991F4A95D1F708958F923E
:1003F0009F92AF92BF92CF92DF92EF92FF924B010A
:100400005C01D0DF6B017C01CDDF6C197D098E09A9
:100410009F09683E734081059105B0F321E0821A7F
:100420009108A108B10888EEC80E83E0D81EE11C2F
:10043000F11C81149104A104B10431F7FF90EF90F5
:10044000DF90CF90BF90AF909F908F9008951F92B4
:100450000F920FB60F9211240BB60F922F933F936A
:100460004F935F936F937F938F939F93AF93BF93BC
:10047000EF93FF938FE192E0D8DEFF91EF91BF9170
:10048000AF919F918F917F916F915F914F913F912C
:100490002F910F900BBE0F900FBE0F901F901895CD
:1004A0001F920F920FB60F9211240BB60F922F933B
:1004B0008F939F93EF93FF93E0912F02F09130027F
:1004C0008081E0913502F091360282FD1DC090815D
:1004D000809138028F5F8F7320913902821741F02B
:1004E000E0913802F0E0E15EFD4F958F8093380295
:1004F000FF91EF919F918F912F910F900BBE0F90D5
:100500000FBE0F901F9018958081F2CF1F920F920F
:100510000FB60F9211242F933F938F939F93AF9316
:10052000BF938091150290911602A0911702B0918D
:1005300018023091140223E0230F2D3758F501964D
:10054000A11DB11D209314028093150290931602F1
:10055000A0931702B09318028091190290911A0289
:10056000A0911B02B0911C020196A11DB11D8093A8
:10057000190290931A02A0931B02B0931C02BF9120
:10058000AF919F918F913F912F910F900FBE0F9040
:100590001F90189526E8230F0296A11DB11DD2CFFA
:1005A0001F920F920FB60F9211245A980F900FBE00
:1005B0000F901F901895CF93DF93CDB7DEB72C9790
:1005C0000FB6F894DEBF0FBECDBF789484B58260BD
:1005D00084BD84B5816084BD85B5826085BD85B5E7
:1005E000816085BD80916E00816080936E00109265
:1005F00081008091810082608093810080918100E0
:100600008160809381008091800081608093800070
:100610008091B10084608093B1008091B0008160CE
:100620008093B000809191008260809391008091CE
:10063000910081608093910080919000816080930F
:1006400090008091A10082608093A1008091A10020
:1006500081608093A1008091A00081608093A000C0
:10066000809121018260809321018091210181602C
:1006700080932101809120018160809320018091ED
:100680007A00846080937A0080917A0082608093FF
:100690007A0080917A00816080937A0080917A005C
:1006A000806880937A001092C10068EE73E080E069
:1006B00090E09DDE87E08AB988EF8BB9E0912F0248
:1006C000F091300282E08083E0912B02F0912C02C5
:1006D0001082E0912D02F0912E028FEC8083109217
:1006E0003702E0913302F091340286E08083E0919A
:1006F0003102F0913202808180618083E091310289
:10070000F0913202808188608083E0913102F09123
:100710003202808180688083E0913102F091320260
:1007200080818F7D80838091C10084648093C1002B
:100730008091C00081608093C00061E070E080E043
:1007400090E055DE8AEE80931E0211E082E0C82E12
:10075000DD24DA9403E094E0992E25E0822E38EC33
:10076000732E4CE8642E5E018DE0A80EB11C89B199
:100770008FE192E045DD892BA1F08FE192E01EDD53
:1007800090910002992379F090911E02981309C06C
:100790001092000210931D028091C0008E7F809302
:1007A000C000D0DDE4CF80911D028823D1F31092E8
:1007B0001D02109300025A9A61E070E080E090E020
:1007C00016DE1983CA82DB820C839D82DE821F8340
:1007D000088709878A867B866C86FE0131967F01B1
:1007E000F70161917F018FE192E041DDEA14FB04A2
:1007F000B9F7D7CFEFE1F2E01382128288EE93E0EF
:10080000A0E0B0E084839583A683B78385E092E07F
:100810009183808385EC90E09587848784EC90E0D9
:100820009787868780EC90E0918B808B81EC90E0BD
:10083000938B828B82EC90E0958B848B86EC90E09E
:10084000978B868B118E128E138E148E0895EE0F59
:10085000FF1F881F8BBF0790F691E02D1994F89425
:02086000FFCFC8
:1008620001000000003701A200CF0083010001DE79
:0408720000F2000090
:00000001FF
