:100000000C9462000C948A000C948A000C948A0070
:100010000C948A000C948A000C948A000C948A0038
:100020000C948A000C948A000C948A000C948A0028
:100030000C948A000C948A000C948A000C948A0018
:100040000C9403040C948A000C94D1030C94AB031D
:100050000C944D040C948A000C948A000C948A0031
:100060000C948A000C948A000000000024002700F1
:100070002A0000000000250028002B0000000008D6
:10008000000201000003040700000000000000005F
:1000900000000000230026002900040404040404D6
:1000A0000404020202020202030303030303010227
:1000B00004081020408001020408102001020408F6
:1000C0001020580411241FBECFEFD8E0DEBFCDBFF3
:1000D00011E0A0E0B1E0EEE4FFE002C005900D9277
:1000E000A431B107D9F721E0A4E1B1E001C01D922C
:1000F000AE3CB207E1F710E0C2E6D0E004C02197C1
:10010000FE010E949F07C136D107C9F70E94A504CE
:100110000C94A5070C9400008F929F92AF92BF920F
:10012000CF92DF92EF92FF92CF93DF93A091C30122
:1001300030E081113A2F8091C40190E0880F991F1F
:10014000AC0140575F4FC090C901D090CA01E09008
:10015000CB01F090CC0160E070E0CB01FA01C591D9
:10016000D49128812A2323130FC04B015C012FEF68
:10017000821A920AA20AB20A6C157D058E059F05A5
:1001800070F060E070E0CB01DF91CF91FF90EF90D5
:10019000DF90CF90BF90AF909F908F900895C50152
:1001A000B401DCCFAF92BF92CF92DF92EF92FF9279
:1001B0000F931F93CF93DF936C017B018B01040F8F
:1001C000151FEB015E01AE18BF08C017D10759F02B
:1001D0006991D601ED91FC910190F081E02DC6016D
:1001E0000995892B79F7C501DF91CF911F910F9167
:1001F000FF90EF90DF90CF90BF90AF900895FC01FB
:10020000538D448D252F30E0842F90E0821B930B7B
:10021000541710F0CF96089501970895FC01918D21
:10022000828D981761F0A28DAE0FBF2FB11D5D9624
:100230008C91928D9F5F9F73928F90E008958FEFC6
:100240009FEF0895FC01918D828D981731F0828D7A
:10025000E80FF11D858D90E008958FEF9FEF0895D1
:10026000FC01918D228D892F90E0805C9F4F821B35
:1002700091098F73992708958FE191E00E943001D1
:1002800021E0892B09F420E0822F089580E090E09E
:10029000892B29F00E943C0181110C9400000895E3
:1002A000FC01A48DA80FB92FB11DA35ABF4F2C91EB
:1002B000848D90E001968F739927848FA689B789E2
:1002C0002C93A089B1898C91837080648C93938DD9
:1002D000848D981306C00288F389E02D80818F7D7C
:1002E00080830895EF92FF920F931F93CF93DF9334
:1002F000EC0181E0888F9B8D8C8D98131AC0E88962
:10030000F989808185FF15C09FB7F894EE89FF8930
:100310006083E889F98980818370806480839FBFCE
:1003200081E090E0DF91CF911F910F91FF90EF90CE
:100330000895F62E0B8D10E00F5F1F4F0F731127DE
:10034000E02E8C8D8E110CC00FB607FCFACFE88919
:10035000F989808185FFF5CFCE010E945001F1CF50
:10036000EB8DEC0FFD2FF11DE35AFF4FF0829FB78D
:10037000F8940B8FEA89FB8980818062CFCFCF937D
:10038000DF93EC01888D8823B9F0AA89BB89E889BD
:10039000F9898C9185FD03C0808186FD0DC00FB663
:1003A00007FCF7CF8C9185FFF2CF808185FFEDCFE1
:1003B000CE010E945001E9CFDF91CF91089590E0E6
:1003C000FC01E458FF4F2491FC01E255FF4F3491AA
:1003D000FC01E656FF4FE491EE23C9F0222339F0E9
:1003E000233001F1A8F4213019F1223029F1F0E095
:1003F000EE0FFF1FEE58FF4FA591B4918FB7F89401
:10040000EC91611126C030953E233C938FBF089537
:100410002730A9F02830C9F0243049F780918000B6
:100420008F7D03C0809180008F7780938000DFCF25
:1004300084B58F7784BDDBCF84B58F7DFBCF809172
:10044000B0008F778093B000D2CF8091B0008F7DC5
:10045000F9CF3E2BDACFCF93DF9390E0FC01E2554A
:10046000FF4F249186569F4FFC0184918823D1F041
:1004700090E0880F991FFC01E859FF4FA591B491B6
:10048000FC01EE58FF4FC591D491623071F49FB7D3
:10049000F8943C91822F809583238C93E8812E2BB6
:1004A00028839FBFDF91CF9108958FB7F894EC9187
:1004B0002E2B2C938FBFF6CF3FB7F8948091150168
:1004C00090911601A0911701B091180126B5A89B33
:1004D00005C02F3F19F00196A11DB11D3FBFBA2FD6
:1004E000A92F982F8827BC01CD01620F711D811D96
:1004F000911D42E0660F771F881F991F4A95D1F71B
:1005000008958F929F92AF92BF92CF92DF92EF9217
:10051000FF924B015C010E945C026B017C010E9416
:100520005C026C197D098E099F09683E7340810544
:100530009105A8F321E0821A9108A108B10888EE7C
:10054000C80E83E0D81EE11CF11C81149104A104A3
:10055000B10429F7FF90EF90DF90CF90BF90AF905C
:100560009F908F900895CF92DF92EF92FF920F931A
:100570001F93CF93DF93CDB7DEB7C054D1400FB6F2
:10058000F894DEBF0FBECDBF2FB7F89480911B014A
:1005900090911C01A0911D01B0911E012FBF4091AF
:1005A000C5015091C6016091C7017091C8018C01CD
:1005B0009D01041B150B260B370BB901A801403D0B
:1005C00057406105710590F48091CD01C05CDE4F0C
:1005D0000FB6F894DEBF0FBECDBFDF91CF911F9154
:1005E0000F91FF90EF90DF90CF9008958093C50119
:1005F0009093C601A093C701B093C8011092C001A7
:100600001092BF011092BE011092BD011092BC0168
:1006100061E08091C1010E94DF016AEF70E080E03B
:1006200090E00E94810261E08091C1010E942B0252
:1006300060E08091C1010E94DF0164E170E080E030
:1006400090E00E948102F89462E08091C1010E94D2
:100650002B0283EC90E00197F1F780E00E948C0080
:10066000672B682B692B29F41092CD01789480E0D8
:10067000ADCF81E00E948C00672B682B692BA1F322
:100680008E010F5F1F4F6E012FEBC21A2EEFD20AA1
:10069000780180E00E948C00F7016083718382837F
:1006A000938381E00E948C00F701648375838683C5
:1006B0009783F8E0EF0EF11CEC14FD0451F77894E9
:1006C00030E020E0F801C080D180E280F3804481F6
:1006D000558166817781C114D104E104F10429F0C8
:1006E000411551056105710519F41092CD01BFCF77
:1006F000F90183E0F595E7958A95E1F7E454FE4F1B
:100700008081880FC416D506E606F70610F18083AF
:100710002F5F3F4F085F1F4F2832310599F64091F8
:10072000C0012091BC018091BD01280F3327331FE8
:100730008091BE01280F311D8091BF01820F932F40
:10074000911D99274817190681F681E08093CD0104
:100750003DCF8160DCCF1F920F920FB60F92112414
:100760002F933F934F935F936F937F938F939F93B9
:10077000AF93BF93EF93FF938FE191E00E945001FD
:10078000FF91EF91BF91AF919F918F917F916F9169
:100790005F914F913F912F910F900FBE0F901F903F
:1007A00018951F920F920FB60F9211242F938F93CB
:1007B0009F93EF93FF93E0912F01F091300180819F
:1007C000E0913501F091360182FD1BC0908180914E
:1007D00038018F5F8F7320913901821741F0E091CA
:1007E0003801F0E0E15EFE4F958F80933801FF9174
:1007F000EF919F918F912F910F900FBE0F901F90AF
:1008000018958081F4CF1F920F920FB60F9211248A
:100810002F933F938F939F93AF93BF9380911B012F
:1008200090911C01A0911D01B0911E013091140105
:1008300023E0230F2D3758F50196A11DB11D2093FC
:10084000140180931B0190931C01A0931D01B09390
:100850001E018091150190911601A0911701B09190
:1008600018010196A11DB11D8093150190931601E9
:10087000A0931701B0931801BF91AF919F918F91F1
:100880003F912F910F900FBE0F901F90189526E863
:10089000230F0296A11DB11DD2CF1F920F920FB64A
:1008A0000F9211245A980F900FBE0F901F90189519
:1008B000EFE1F1E01382128288EE93E0A0E0B0E075
:1008C00084839583A683B78385E091E091838083B9
:1008D00085EC90E09587848784EC90E09787868705
:1008E00080EC90E0918B808B81EC90E0938B828BFD
:1008F00082EC90E0958B848B86EC90E0978B868BD6
:10090000118E128E138E148EACEBB1E089E0159629
:100910008C93159786E116968C931697E7EBF0E08B
:10092000E4911796EC931797E3EAF0E0E4911896B8
:10093000EC93189740E85EE360E070E01D964D93FD
:100940005D936D937C9350970895CF93DF93CDB7CC
:10095000DEB728970FB6F894DEBF0FBECDBF7894F0
:1009600084B5826084BD84B5816084BD85B58260B4
:1009700085BD85B5816085BD80916E008160809365
:100980006E001092810080918100826080938100CE
:1009900080918100816080938100809180008160DE
:1009A000809380008091B10084608093B100809139
:1009B000B00081608093B00080917A008460809361
:1009C0007A0080917A00826080937A0080917A0028
:1009D000816080937A0080917A00806880937A00A9
:1009E0001092C10068EE73E080E090E00E94810206
:1009F00087E08AB988EF8BB9E0912F01F09130013F
:100A000082E08083E0912B01F0912C011082E09133
:100A10002D01F0912E018FEC808310923701E0912F
:100A20003301F091340186E08083E0913101F0914F
:100A30003201808180618083E0913101F091320147
:100A4000808188608083E0913101F0913201808162
:100A500080688083E0913101F091320180818F7D47
:100A600080838091C10084648093C1008091C00024
:100A700081608093C00061E070E080E090E00E94BF
:100A800081028AEE80931A0162E08091C1010E9486
:100A90002B0280E398EFAFEFBFEF8093C5019093F7
:100AA000C601A093C701B093C80100E010E0FF2485
:100AB000F39489B18FE191E00E943001892BA9F074
:100AC0008FE191E00E940E01909100019923B9F00D
:100AD00090911A01981309C010920001F092190127
:100AE0008091C0008E7F8093C0000115110509F32D
:100AF0000E943C018823E9F20E940000DACF809135
:100B00001901882391F310921901F09200015A9A69
:100B100061E070E080E090E00E9481020E94B302F8
:100B2000882341F08091C2018B3049F018F0855143
:100B3000823010F160E070E080EC9FE707C06091C8
:100B4000BE0170E090E080E00E94A4066D837E8389
:100B50008F8398870E94B302882349F08091C20155
:100B60008B3081F120F08551823008F45FC060E065
:100B700070E080EC9FE72DC0E090BE016E2D6F7796
:100B800070E090E080E00E94A60620E030E040E8BF
:100B900053E40E9432074B015C016091BF0170E099
:100BA00090E080E00E94A606A50194010E9438060C
:100BB0002DEC3CEC4CEC5DE30E943207E7FEC6CF27
:100BC0009058C4CF6091BC0170E090E080E00E943A
:100BD000A40669837A838B839C836C818FE191E087
:100BE0000E9472016B818FE191E00E9472016A8123
:100BF0008FE191E00E94720169818FE191E00E9492
:100C0000720168858FE191E00E9472016F818FE12E
:100C100091E00E9472016E818FE191E00E94720169
:100C20006D818FE191E00E9472015FCF6091BC0104
:100C300070E090E080E00E94A40620E030E040E810
:100C400053E40E9432074B015C016091BD0170E0EA
:100C500090E080E00E94A606A50194010E9438065B
:100C60002DEC3CEC4CEC5DE30E943207B2CF5058C7
:100C7000BB27AA270E944F060C94F8060E94EA069A
:100C800038F00E94F10620F039F49F3F19F426F461
:100C90000C94E7060EF4E095E7FB0C94E106E92FCF
:100CA0000E94090758F3BA1762077307840795076C
:100CB00020F079F4A6F50C942B070EF4E0950B2E9A
:100CC000BA2FA02D0B01B90190010C01CA01A0019E
:100CD0001124FF27591B99F0593F50F4503E68F1F9
:100CE0001A16F040A22F232F342F4427585FF3CF3A
:100CF000469537952795A795F0405395C9F77EF40B
:100D00001F16BA0B620B730B840BBAF09150A1F053
:100D1000FF0FBB1F661F771F881FC2F70EC0BA0FD9
:100D2000621F731F841F48F4879577956795B79561
:100D3000F7959E3F08F0B0CF9395880F08F099275C
:100D4000EE0F979587950895E89409C097FB3EF4B8
:100D500090958095709561957F4F8F4F9F4F992308
:100D6000A9F0F92F96E9BB279395F6958795779586
:100D70006795B795F111F8CFFAF4BB0F11F460FF46
:100D80001BC06F5F7F4F8F4F9F4F16C0882311F09E
:100D900096E911C0772321F09EE8872F762F05C0B2
:100DA000662371F096E8862F70E060E02AF09A954D
:100DB000660F771F881FDAF7880F9695879597F942
:100DC000089597F99F6780E870E060E008959FEFCD
:100DD00080EC089500240A941616170618060906D2
:100DE000089500240A9412161306140605060895A1
:100DF000092E0394000C11F4882352F0BB0F40F429
:100E0000BF2B11F460FF04C06F5F7F4F8F4F9F4F68
:100E1000089557FD9058440F551F59F05F3F71F0EA
:100E20004795880F97FB991F61F09F3F79F0879551
:100E30000895121613061406551FF2CF4695F1DFDA
:100E400008C0161617061806991FF1CF869571056A
:100E5000610508940895E894BB2766277727CB019E
:100E600097F908950E9445070C94F8060E94EA0637
:100E700038F00E94F10620F0952311F00C94E10661
:100E80000C94E70611240C942C070E94090770F3B8
:100E9000959FC1F3950F50E0551F629FF001729F1F
:100EA000BB27F00DB11D639FAA27F00DB11DAA1F2E
:100EB000649F6627B00DA11D661F829F2227B00D7B
:100EC000A11D621F739FB00DA11D621F839FA00D06
:100ED000611D221F749F3327A00D611D231F849F56
:100EE000600D211D822F762F6A2F11249F575040AD
:100EF0009AF0F1F088234AF0EE0FFF1FBB1F661F28
:100F0000771F881F91505040A9F79E3F510580F0F0
:100F10000C94E1060C942C075F3FE4F3983ED4F365
:100F2000869577956795B795F795E7959F5FC1F794
:100F3000FE2B880F911D9695879597F90895EE0FD2
:0E0F4000FF1F0590F491E02D0994F894FFCF67
:100F4E0001000000007201D200FF00BF0130010E4F
:040F5E00012201006B
:00000001FF
